:020000040000fa
:10000000f87f0020653b0000f30c0000f30c0000bb
:1000100000000000000000000000000000000000e0
:10002000000000000000000000000000f30c0000d1
:100030000000000000000000f30c0000df2b0000b7
:10004000f30c0000f30c0000f30c0000f30c0000b4
:10005000f30c0000af050000f30c0000f30c0000ef
:10006000f30c0000f30c0000f30c0000f30c000094
:10007000f30c0000f30c0000f30c0000f30c000084
:10008000f30c0000f30c0000f30c0000f30c000074
:10009000f30c0000f30c0000f30c0000f30c000064
:1000a000f30c0000f30c0000f30c0000f30c000054
:1000b000f30c0000f30c0000f30c0000f30c000044
:1000c000f30c0000f30c0000f30c0000f30c000034
:1000d000f30c0000f30c0000f30c0000f30c000024
:1000e000f30c0000f30c0000f30c0000f30c000014
:1000f000f30c0000f30c0000f30c0000f30c000004
:10010000f30c0000f30c0000f30c0000f30c0000f3
:10011000f30c0000f30c0000f30c0000f30c0000e3
:10012000f30c0000f30c0000f30c0000f30c0000d3
:10013000f30c0000f30c0000f30c0000f30c0000c3
:10014000f30c0000f30c0000f30c0000f30c0000b3
:0c015000f30c0000f30c0000f30c0000a6
:020000040000fa
:10015c00f8b5c046f8bc08bc9e467047713f00001d
:10016c00f8b5c046f8bc08bc9e4670474d3f000031
:020000040000fa
:08017c00e22c0000010000006c
:020000040000fa
:1001840080b582b000af0200fb1d1a70fb1d1b7806
:100194007f2b12d8fb1d1b781a001f231a40110055
:1001a4004ef20013cef20003fa1d127852b2520935
:1001b4000120884001009200d150c046bd4602b0e3
:1001c40080bd90b583b000af02003960fb1d1a708a
:1001d400fb1d1b787f2b2fd84ef20013cef20003a9
:1001e400fa1d127852b29208c0329200d358fa1d06
:1001f4001278110003220a40d200ff2191400a0024
:10020400d2431a4010003b689b01ff221a40fb1d99
:100214001b78190003230b40db009a4011004ef2b7
:100224000013cef20003fa1d127852b29208014371
:10023400c0329200d15037e04ef60053cef20003a4
:10024400fa1d127811000f220a40083a9208063269
:1002540092009b1804331b68fa1d127811000322c4
:100264000a40d200ff2191400a00d2431a401000f4
:100274003b689b01ff221a40fb1d1b7819000323d6
:100284000b40db009a404ef60053cef20003f91dfa
:1002940009780c000f2121400839890802430631ee
:1002a40089005b1804331a60c046bd4603b090bd94
:1002b40080b582b000af00237b6040f20043c4f2fb
:1002c400000301229a7140f20043c4f200030222a7
:1002d4009a7000e0c04640f20043c4f200039b79e8
:1002e400dbb21a0001231340002bf3d040f2004389
:1002f400c4f2000301229a7145f20003c4f2001310
:1003040004225a6041f60003c4f2000340f20232b0
:100314001a6200e0c04641f60003c4f20003da6842
:100324008023db021340002bf4d041f20003c4f21b
:10033400000300221a8600e0c04641f20003c4f222
:1003440000031a6980235b041340002bf4d046f2a7
:100354002003c0f280031b687b607a68fc23db0502
:1003640013407b607b68db0b7b607b6840f2002280
:1003740013437b6041f20003c4f200037a685a63ba
:1003840000e0c04641f20003c4f200031a6980236e
:100394005b041340002bf4d041f20003c4f20003c9
:1003a4001b8e9ab241f20003c4f2000302210a43f5
:1003b40092b21a8600e0c04641f20003c4f2000380
:1003c4001a6980235b041340002bf4d041f60043e8
:1003d400c4f2000340f205129a6200e0c04641f6fe
:1003e4000043c4f200035b6810221340002bf5d1d4
:1003f40041f60043c4f2000340f20712c0f20202c5
:100404001a6200e0c04641f60043c4f200035b6890
:1004140004221340002bf5d1c046bd4602b080bd76
:1004240080b500af41f60043c4f20003902242219c
:10043400995000e0c04641f60043c4f20003902204
:100444009b5842221340002bf4d042f60023c4f2fe
:10045400000301221a7000e0c04642f60023c4f2f1
:1004640000035b6801221340002bf5d142f6002300
:10047400c4f200030f225a63c046bd4680bd80b556
:1004840000af42f60023c4f200031b78dab242f64e
:100494000023c4f2000302210a43d2b21a7000e01e
:1004a400c04642f60023c4f200035b6802221340f4
:1004b400002bf5d1c046bd4680bd80b500af40f2eb
:1004c4000023c4f2002301221a70c046c046c0466d
:1004d400c046bd4680bd80b500af43f20023c4f2e0
:1004e400000348f200025a6143f20023c4f20003fd
:1004f40048f200029a6043f20023c4f200034f2240
:1005040000219954c046bd4680bd80b586b000af79
:100514000200bb1d1a803b1d0a1c1a8010217b1887
:1005240000221a607b1800225a6008203b1800221f
:100534001a603b1800225a603b1d00229b5edb437d
:100544001bb2ba1d0020125e13401ab2bb1d1a80e2
:10055400bb1d1b880122134033b17b181b6848f272
:1005640000021a437b181a603b1d1b8801221340aa
:100574003bb108217b181b6848f200021a437b1820
:100584001a6043f20023c4f200031022ba1812685e
:100594009a6143f20023c4f200030822ba181268d5
:1005a4005a61c046bd4606b080bd80b500af40f27a
:1005b400dc03c2f200031b889bb2032293439ab26a
:1005c40040f2dc03c2f200031a8042f60023c4f2b4
:1005d40000039b6b0422134073b940f2dc03c2f2a4
:1005e40000031b889bb2012213439ab240f2dc033e
:1005f400c2f200031a800de040f2dc03c2f20003f1
:100604001b889bb2022213439ab240f2dc03c2f26b
:1006140000031a8042f60023c4f200035a6942f62a
:100624000023c4f2000304210a435a61c046bd46b4
:1006340080bd80b500af43f20023c4f200038022e2
:1006440012045a6043f20023c4f200035722032128
:10065400995443f20023c4f200033b229b5cdab2b8
:1006640043f20023c4f200030f210a40d1b23b221b
:10067400995442f60023c4f200031a6b42f6002395
:10068400c4f2000304210a431a6342f60023c4f2ad
:100694000003da6942f60023c4f200030c490a405d
:1006a400da6142f60023c4f20003da6942f6002359
:1006b400c4f2000340f600310a43da6142f6002333
:1006c400c4f2000304221a61c046bd4680bdc04680
:1006d400fff0ffff80b582b000afba1d40f2dc032b
:1006e400c2f200031b88138040f2dc03c2f2000351
:1006f40000221a80bb1d1b881800bd4602b080bdb5
:1007040080b500afbff35f8f62b603210520fff70a
:1007140058fd01235b4203211800fff752fd052019
:10072400fff72efd01235b421800fff729fdc046a9
:10073400bd4680bd80b500affff7bafdfff7bdfe33
:10074400fff76efefff775fffff7c5fe00f05efdd5
:1007540001f07cfefff793fe02f093fafff7d0ff5f
:10076400c046bd4680bd80b582b000af3b001800d6
:1007740002f0bffa3b00180000f08bfe3b001800ab
:0c07840001f0c2ffc046bd4602b080bdbf
:020000040000fa
:100790000eb480b587b000af7860002301225340cb
:1007a000dbb2002b54d17b6840f24e129b5c002bd5
:1007b00050d17b681b881a0001231340002b49d1bc
:1007c00044f620637b6101e0fff7cfff00f00afff2
:1007d000030023b17b695a1e7a61002bf4dc00f020
:1007e00001ff0300002b37d12823fb18fb607b6837
:1007f00024331800fb687a6a802103f0d5fa0300dd
:100800003b613b69002b28dd3b697f2b25d87b684a
:1008100024331a007b685a603b699ab27b681a815c
:100820007b6804330121180000f0c9fe0300a3b166
:1008300044f620637b6101e0fff797ff00f0d2fef2
:10084000030053b17b695a1e7a61002bf4dc04e08b
:10085000c04602e0c04600e0c046bd4607b080bcce
:1008600008bc03b0184780b582b000af78607b68e1
:1008700040f250120021180003f010fdfff75cff5a
:100880007b681133ff33180000f034fa7b6840f2c4
:100890004e12002199547b68b6331a007b68a82158
:1008a0005a507b68ac22202199527b68a8331800eb
:1008b00000f0eefe7b68e6331a007b68d8215a50c0
:1008c0007b68dc222a2199527b68d833180001f01a
:1008d0006bff7b681b88012213439ab27b681a80e6
:1008e000002323b142f2ac23c0f2000303e042f242
:1008f000b023c0f2000342f2b421c0f200017868d4
:100900001a00fff745ffc046bd4602b080bdf0b5f6
:10091000afb002af78609e257b1900221a80fff7e6
:1009200024ff7c19fff7d8fe030023807b191b8866
:10093000c3b17b191b88012213407bb17b681b88e4
:10094000012213439ab27b681a8042f20033c0f24c
:1009500000037a6819001000fff71aff9e23fb18a6
:1009600000221a807b681b881a000123134043b3be
:1009700000f038fe03001a0001235340dbb203b33a
:100980007b6840f24e129b5c01225340dbb2c3b144
:100990007a6842f21003c0f2000353607b6840f2b1
:1009a00098221a817b6804330121180000f007fea9
:1009b000030033b17b681b88012293439ab27b68a2
:1009c0001a807b68de229b5a9bb2012b18d143f21e
:1009d0000023c4f2000348f200029a617b681b887e
:1009e000042213439ab27b681a807b68e0229b5ae8
:1009f00099b27b68e42299527b68de2200219952e9
:100a00007b681b881a0004231340002b00d109e1e6
:100a1000af23fb1800221a700023002b61d00023a3
:100a2000a8243a1913603b191b680822ba18d01879
:100a30003b191b689222d11a7b68e4229b5a42f22e
:100a40002832c0f2000203f009fc02003b191b68c7
:100a50009b183a191360a623fb1800221a8027e07e
:100a6000a8257b191b688d2b2bdc7b191b680822a2
:100a7000ba18d0187b191b689222d41aa626bb1963
:100a80001b887a68e621d3185b181b7842f2403243
:100a9000c0f20002210003f0e1fb02007b191b6899
:100aa0009b187a191360bb19ba19128801321a807f
:100ab0007b68e4229b5aa622ba1812889a42cfd3a6
:100ac00000e0c046a823fb181b68002b09dd0823a3
:100ad000fa1842f24833c0f2000378681900fff7b1
:100ae00057fea423fb1800221a8078e0a423fb18e9
:100af0001a889d26bb197968e6208a181218127880
:100b00001a707b681133ff3319007b683733ff336a
:100b10001d009c23fc18bb191a7878682b0000f084
:100b200025f9030023709c23fb181b78002b50d160
:100b300042f25033c0f200037a6819001000fff748
:100b400027fe7b6840f24e12012199547b682433c2
:100b500018007b6840f23c129b5a1c007b6840f2f4
:100b60003e129b5a19007b6840f240129b5a42f297
:100b70007832c0f20002019300912300802103f03b
:100b80006dfb030099b27b68a42299527b68a42272
:100b90009b5a83b17b68a4229b5a7f2b0bd87b681e
:100ba0001b88082213439ab27b681a80af23fb1874
:100bb00001221a700de042f2b433c0f200037a68e9
:100bc00019001000fff7e4fd7b6840f24e1200218f
:100bd0009954a422bb18ba18128801321a807b6873
:100be000e4229b5aa422ba1812889a4200d27de7c6
:100bf0007b681b88042293439ab27b681a80af23d8
:100c0000fb181b7801225340dbb223b17b68d83339
:100c1000180001f0c9fd43f20023c4f2000348f2ba
:100c200000025a617b681b881a0008231340002bbe
:100c30004fd044f62063a022ba18136001e0fff7fa
:100c400094fd00f0cffc03003bb1a0217b181b6892
:100c50005a1e79180a60002bf1dc00f0c3fc030077
:100c60004bb142f2e433c0f200037a68190010007d
:100c7000fff78efd2de07b6824331a007b685a60f5
:100c80007b68a4229a5a7b681a817b68043301210d
:100c9000180000f094fc03008bb17b681b880822cd
:100ca00093439ab27b681a807b6840f24e1200210f
:100cb00099547b68d833180001f076fd09e042f2c0
:100cc0002043c0f200037a6819001000fff760fdae
:100cd000c046c046bd462db0f0bd80b5d4b000af13
:100ce0003b001800fff7bffd3b001800fff70ffea9
:020cf000fae721
:020000040000fa
:020cf200fee71b
:020000040000fa
:100cf40080b582b000af78607b682622002118009e
:100d040003f0cafa7b682122002199547b682022cf
:100d1400002199547b6800229a84c046bd4602b0e3
:100d240080bd80b582b000af786039603b68212215
:100d34009b5c1a0043f27813c0f200037868190030
:100d4400fff724fd3b682122002199543b682022af
:100d5400002199543b6800229a843b6800225a84fb
:100d6400c046bd4602b080bd90b587b000aff86004
:100d7400b9603b60fb1d1a70bb6820229b5c1f2b73
:100d840017d9bb6821229b5c9bb1bb6820229b5c6a
:100d94001a0043f2b013c0f20003f8681900fff719
:100da400f5fcba68fb6811001800fff7baff0623c8
:100db40028e2bb6821229b5c062b00d90be29a0037
:100dc400844bd3181b689f46fb1d1b78422b00d015
:100dd40014e2bb68fa1d12781a70bb682022012144
:100de4009954fb1d1b789ab2bb689a84bb68212274
:100df4000121995402e2fb1d1b784d2b1ad1bb68cb
:100e040020229b5c5a1cd0b2ba682021505419008d
:100e1400bb68fa1d12785a54bb689a8cfb1d1b7868
:100e24009bb2d3189ab2bb689a84bb682122022170
:100e34009954e6e1fb1d1a7843f2e413c0f200036f
:100e4400f8681900fff7a2fcba68fb6811001800e3
:100e5400fff767fffb1d1b78422b09d13c68fb1d84
:100e64001a78b968f8682300fff77eff0300c9e128
:100e74000423c7e1bb6820229b5c5a1cd0b2ba6829
:100e8400202150541900bb68fa1d12785a54bb68cb
:100e94009a8cfb1d1b789bb2d3189ab2bb689a84b8
:100ea400fb1d1b789bb21b029ab2bb685a84bb68b9
:100eb400212203219954a4e1bb6820229b5c5a1c83
:100ec400d0b2ba68202150541900bb68fa1d1278b8
:100ed4005a54bb689a8cfb1d1b789bb2d3189ab2e8
:100ee400bb689a84bb685a8cfb1d1b789bb2134366
:100ef4009ab2bb685a84bb685b8c1a00bb685b8c73
:100f040043f22021c0f20001f868fff73ffcbb6800
:100f14005b8c3bb1bb685b8c1c2b03d8bb685b8cc4
:100f2400012b12d8bb685b8c1a0043f25023c0f229
:100f34000003f8681900fff729fcba68fb68110080
:100f44001800fff7eefe05235ce1bb6821220421b3
:100f5400995456e1bb6820229b5c5a1cd0b2ba68f3
:100f6400202150541900bb68fa1d12785a54bb68ea
:100f740020229b5c1a00bb685b8c02339a4208dc1b
:100f8400bb689a8cfb1d1b789bb2d3189ab2bb68c2
:100f94009a84bb6820229b5c023bba68528c9342c1
:100fa40000d02de1bb6821220521995428e1bb68ba
:100fb40020229b5c5a1cd0b2ba68202150541900dc
:100fc400bb68fa1d12785a54bb6821220621995431
:100fd40017e1c04658330000bb6820229b5c5a1cb2
:100fe400d0b2ba68202150541900bb68fa1d127897
:100ff4005a54bb6820229b5c023bba68d35c1b0238
:101004001ab2bb6820215b5c013bb968cb5c1bb2a4
:1010140013431ab216217b181a80bb689b8c1a00e2
:101024000c007b181b8843f27c21c0f20001f86895
:10103400fff7acfbbb689b8c3a1912889a4200d02c
:10104400b8e043f2a823c0f20003fa6819001000c4
:10105400fff79cfbbb685b8c1b2b00d897e0bb683d
:101064001b791b021ab2bb685b791bb213431bb218
:101074009ab23b681a80bb689b791b021ab2bb68a0
:10108400db791bb213431bb29ab23b685a80bb682c
:101094001b7a1b021ab2bb685b7a1bb213431bb2e6
:1010a4009ab23b689a80bb689b7a1b021ab2bb68ef
:1010b400db7a1bb213431bb29ab23b68da80bb687b
:1010c4001b7b1b021ab2bb685b7b1bb213431bb2b4
:1010d4009ab23b681a81bb689b7b1b021ab2bb683d
:1010e400db7b1bb213431bb29ab23b685a81bb68c9
:1010f4001b7c1b021ab2bb685b7c1bb213431bb282
:101104009ab23b689a81bb689b7c1b021ab2bb688b
:10111400db7c1bb213431bb29ab23b68da81bb6817
:101124001b7d1b021ab2bb685b7d1bb213431bb24f
:101134009ab23b681a82bb689b7d1b021ab2bb68d9
:10114400db7d1bb213431bb29ab23b685a82bb6865
:101154001b7e1b021ab2bb685b7e1bb213431bb21d
:101164009ab23b689a82bb689b7e1b021ab2bb6828
:10117400db7e1bb213431bb29ab23b68da82ba68b5
:10118400fb6811001800fff7ccfd00233ae0bb68b0
:101194005b8c1a0043f2c023c0f20003f868190004
:1011a400fff7f4faba68fb6811001800fff7b9fdfd
:1011b400052327e043f20033c0f20003fa68190064
:1011c4001000fff7e3faba68fb6811001800fff794
:1011d400a8fd032316e0bb6821229b5c1a0043f29e
:1011e4002c33c0f20003f8681900fff7cffaba688d
:1011f400fb6811001800fff794fd02e0c04600e010
:0c120400c04601231800bd4607b090bd95
:020000040000fa
:1012100080b500af41f60043c4f20003d022422162
:10122000995000e0c04641f60043c4f20003d022ca
:101230009b5840221340002bf4d040f27c03c2f2b2
:1012400000032c220021180003f028f840f27c0350
:10125000c2f2000341f20002c4f200221a6041f21d
:101260000003c4f2002301221a6000e0c04641f2ec
:101270000003c4f20023db6901221340002bf5d1e7
:1012800041f20003c4f2002304221a6041f2000379
:10129000c4f20023196841f20003c4f200230022c3
:1012a000c4f210020a431a6041f20002c4f20022a2
:1012b00041f20003c4f2002352685a6041f2000375
:1012c000c4f200232c4a9a8140f27c03c2f200034c
:1012d00000225a6240f27c03c2f200034ef6c23290
:1012e000c0f20b029a6241f20003c4f200235a6872
:1012f00041f20003c4f20023c32109040a435a60e7
:1013000000e0c04641f20003c4f20023db6904227e
:101310001340002bf5d143f20023c4f200038422d2
:1013200040f20031995043f20023c4f20003c82276
:101330000321995443f20023c4f20003b422032191
:10134000995441f20003c4f200231a6841f20003e9
:10135000c4f2002302210a431a6000e0c04641f2b1
:101360000003c4f20023db6902221340002bf5d1f5
:10137000c046bd4680bdc0462bf6ffff80b582b09b
:1013800000af78607b685b6963b17b685b69012251
:10139000da807b685b697a68128c92b21a817b680a
:1013a00000225a617b6800229a617b680022da6120
:1013b0007b6800221a84c046bd4602b080bd80b55d
:1013c00086b000af786039601623fb1800221a80bf
:1013d0001523fb1800221a707b681b681b7edbb28a
:1013e0001a0001231340002b51d07b681b8a9bb24b
:1013f00083b17b68db68591c7a68d1601b78dab2ec
:101400007b681b689a627b681b8a9bb2013b9ab21d
:101410007b681a827b681b8a9bb2002b37d17b6862
:101420000022da607b681b899bb22bb37b685b6808
:101430001a687b68da607b685b689b889ab27b6815
:101440001a827b685b6808331a007b685a607b6885
:101450001b899bb2013b9ab27b681a817b68db686f
:101460001bb17b681b8a9bb28bb97b680022da6058
:101470007b6800221a820ae07b681b6801221a75c9
:101480007b6800225a607b680022da60c046c04652
:10149000bd4606b080bd80b582b000af78607a6886
:1014a00040f27c03c2f2000311001800fff787ff2f
:1014b000c046bd4602b080bd80b582b000af786046
:1014c0007b681b8a9bb25bb97b681b899bb23bb96b
:1014d0007b681b681b7edbb21a00012313400bb92b
:1014e000012300e000231a1c01231340dbb2180083
:1014f000bd4602b080bd80b588b000aff860b9606d
:101500007a601e23fb18082252421a80bb680bb176
:101510007b680bb901233ae07b68202b01d90023bb
:1015200035e0fb681800fff7c7ff03000bb100238d
:101530002de00023bb6100237b611ce0bb69db0065
:10154000ba68d3189b881e22ba1812889a4201d210
:1015500000231ce0bb69db00ba68d3189a881e21ff
:101560007b18791809888a1a1a807b6901337b6194
:10157000bb690133bb61ba697b689a42ded3fb6801
:10158000ba685a607b689ab2fb681a810123180016
:10159000bd4608b080bd80b582b000af78607b6882
:1015a00000221a817b6800225a607b6800221a821e
:1015b0007b680022da60c046bd4602b080bd80b5bf
:1015c00082b000af786039603a68796840f27c0395
:1015d000c2f200031800fff78eff03001800bd469b
:1015e00002b080bd80b500af40f27c03c2f20003c0
:1015f0001800fff761ff03001800bd4680bd80b5ed
:1016000000af40f27c03c2f200031800fff7c3fff3
:10161000c046bd4680bd80b582b000af78607b68b3
:101620005b695a1e9341dbb21800bd4602b080bd13
:1016300080b582b000af786039603b685bb13b68d1
:101640001b6843b13b689b882bb13b689b884ff676
:10165000f872934201d9002316e07b685b690bb1f5
:10166000002311e03b680022da803b6800221a81e7
:101670007b6800221a847b681833180001f03bfb5a
:101680007b683a685a6101231800bd4602b080bdec
:1016900080b582b000af78607a6840f27c03c2f215
:1016a000000311001800fff7c3ff03001800bd4638
:1016b00002b080bd80b500af40f27c03c2f20003ef
:1016c0001800fff7a8ff03001800bd4680bd80b5d5
:1016d00000af40f27c03c2f200031800fff74efe99
:0816e000c046bd4680bdc046b6
:020000040000fa
:1016e800f0b59bb013930b6815900a934b680d9156
:1016f80002938b68ce680b930b6918931368069353
:1017080053680698089300220023089902f098fc71
:1017180060b90a9b5b0734d408200a9b03400993ed
:101728000b9b0393099b73b1202306e080221206ca
:101738009446089b634408932d2333700b9b013b0d
:10174800039301230993089b06995b005b088e4a63
:10175800d9b9934219d1139b099a413bb018192b57
:1017680011d88a4902f0ecfd300002f067fd0a9baf
:101778000200009331000b9b159802f02efa1bb063
:10178800f0bd2b23d9e78249ece7934202d80bd16d
:10179800069b4bb1139b099a413bb018192b01d8f2
:1017a8007c49dfe77c49dde7002200230698089999
:1017b80002f0d2fc0024794d0027e8bb070002e0c4
:1017c8000137049c059d0022754b2000290001f07b
:1017d800cbfe069a089b0490059102f012fc0028a3
:1017e800eed0002304931fe06e4b9f4213da049b54
:1017f8008bb900226c4b0698089901f0b5fe6a4b2c
:101808000690089120002900002201f0adfe012376
:1018180004000d000493200029000022604b01f011
:10182800e4ff04000d00013f22002b0006980899f0
:1018380002f006fc0028d7d1139802f073fdc3b25a
:101848000c93029b002b00da93e10c9b0493672b0b
:1018580000d0afe0029b002b00d185e13b1d03dbec
:10186800029b9f4200daa1e06523b5e00022002335
:101878000e920f9303e106940795049b0897652b36
:1018880000d01ce10023089319e1029b5bb9089b77
:10189800002b08da2e23149a0134b354039b013b1e
:1018a80003930123029323002a19302101e0f15404
:1018b80001339a42fbd1039a2b193030551b5c1c1b
:1018c800f0546b1e0393002523e00d9b14941b69b1
:1018d8001093053ba34200d8fde0069a079b0e989b
:1018e800129901f082ff01f0e1ff1090119102f0ce
:1018f80019fc092800dd092010230a9a1340034324
:10190800002bc2d10c9b672bbfd1089b002bcadad6
:10191800013580200006844612990e9a61440b0016
:101928001098119900920193069a079b02f0f2fc15
:1019380080231b06cb180e90129306980799184b14
:10194800002201f052ff089b06900791013b089383
:10195800bce00a9bdb0600d4c1e02e2333550134da
:10196800bde00a2297fbf2f56a43ba1a3032013b0e
:10197800f254039a2f00013a0392bde0039b325cb4
:10198800f3181a540138e3e00000f07f0c4300001c
:101998001043000014430000184300000000f03f0b
:1019a80000002440d4feffff00005043002f12da4d
:1019b80066230493029b01330293049b662b0cd18c
:1019c800002f02da002400276d4d0c9b672b02d0f4
:1019d800029bdb19029366230493069b0e940f95d2
:1019e8001293089b1093002314930e9a0f9b12983e
:1019f800109901f0fafe01f059ff1690179102f0c4
:101a080091fb19908020000684461099129a61442f
:101a18000b0016981799009201930e9a0f9b02f0eb
:101a280079fc80231b06cb181290109300220e9885
:101a38000f99544b01f0d9fe149b0e900f9101336e
:101a48001493149a029b9342cfd100224e4b01f07b
:101a58008bfd0e900f9102000b001298109902f066
:101a6800effa002800d001e70e9a0f9b1298109900
:101a780002f072fb18b1199bdb0700d4f6e60e9a48
:101a88000f9b0698089901f071fc00220e901291a4
:101a98003c4b2000290001f067fd0e9a129b06902e
:101aa800079102f02dfa002800d1e4e6049b0137e3
:101ab800662b00d0e1e6029b0897013302930025cc
:101ac800029a089b099c9b1a16930295089b169ae2
:101ad800934200d0f9e6029b002b00d139e70021a0
:101ae800049b30190170652b25d1189b013bf154db
:101af8008f4201da7f420131002f00d031e7189a76
:101b08009a1a0332002a00dd2be75d1e2d2201b947
:101b1800023a7255139a023b413a192a01d84522d2
:101b28000492049af1180a70039a023a03929c42aa
:101b380001da02f005fc03230a9a1340022b00d0b5
:101b480012e6039b002b00dc0ee6300002f076fb69
:101b5800099b834200dc11e7f018039a302102f058
:101b680099fb00230b93ffe50123029376e60623f6
:101b7800fbe70c9b672bfad004930623029319e723
:0c1b88000000f03f00002440000014406a
:020000040000fa
:101b9400f0b599b014930b68576809934b68139088
:101ba4000d938b68ce680c930b69390011931368fd
:101bb400002208930898002302f044fa60b9099bb4
:101bc4005b072fd40820099b0c9d0340059363b148
:101bd4002023013d337006e080231b06ff182d23cc
:101be40033700c9b5d1e01230593089a7b005b08f0
:101bf400e2b9ab4a934219d1149b059a413bb01800
:101c0400192b11d8a74902f09dfba74802f018fb35
:101c1400099b0200009331000c9b139801f0dfff35
:101c240019b0f0bd2b23dbe79f49ece79c4a9342b4
:101c340002d80ed1089b63b1149b059a413bb0189e
:101c4400192b04d8994902f07dfb9948dee798499d
:101c5400f9e7059b05995a1c30237354149b413ba7
:101c64000e930e995823192900d920330599b3549a
:101c74000231ab1e05910793002200230898390016
:101c840002f06cfa002800d15fe10023894c06932e
:101c9400029303940d9b1093002b01da18231093e5
:101ca400029b039c0a930b943c000023089d12930f
:101cb40028000a9a0b9b210001f099fd01f0f8fd20
:101cc4000a9a0b9b1690179101f050fc02000b002e
:101cd4002800210002f0fefa774b05000c000a9858
:101ce4000b99002201f042fc129b0a900b910133e4
:101cf4000f930d9b002b06da0022002328002100fd
:101d040002f02cfa30b9109b129a934200dd22e1c2
:101d140001330f9300220a980b99684b01f026fcbb
:101d24000a900b9102000b002800210002f08af9ae
:101d3400002800d011e10a9a0b9b2800210002f030
:101d44000dfa30b11698179902f0eef9c30700d4d2
:101d540003e10a9a0b9b0898390001f009fb1691dc
:101d640049000a90490818b94d4b994200d143e7fc
:101d74000025059c10950895119b2700053ba3425f
:101d840031d9029a039b0a98169901f030fd01f0ab
:101d94008ffd1490159102f0c7f90300002800d0bc
:101da400e0e0089a002a00d1dce00135029a039ba6
:101db4001498159901f0dafb02000b000a981699a1
:101dc40002f088fa00220a9016913b4b029803997c
:101dd40001f0ccfb089b0290039101330893089a0d
:101de4000f9b9342c8d1109bd3b9002d00d1fde0c5
:101df4000d9b002b00dcf9e0099bdb0700d5f5e027
:101e04002e22302133191a702a19b218597001334d
:101e14009a42fbd12c19ed43079b0134eb1807932d
:101e24000021119b069a3019013b0170f1548a423a
:101e340002da524206920131069a002a00d0bfe02b
:101e4400119a9a1a013200d1bae05d1e2d2201b90d
:101e5400023a0e997255023b5022192900d92032b8
:101e6400f1180a709c4201da02f06cfa0323099a11
:101e74001340022b11d1079b9c1e002c0ddd30005a
:101e840002f0def9059b984200dba8e0f01822007e
:101e9400302102f001fa00230c933000b6e6c0466c
:101ea4000000f07ffc4200000043000004430000f7
:101eb400084300000000f03f0000b03f0000204055
:101ec400069b0294039501330693029a039b100028
:101ed400190001f04dfa04000d0002000b000898ef
:101ee400390002f0aff80028ead0029a039b089860
:101ef400390002f0a7f8002800d1cbe60298039934
:101f040000223e4b01f032fb0022002302f026f9ae
:101f140078b1029803990022394b01f027fb002283
:101f240002900391364b0898390001f01ffb0f0013
:101f34000890324b02980399002201f017fb069b8c
:101f440002900391013b0693cfe700232d4c0690aa
:101f540002930394b9e70f9ba9e6002300240a9394
:101f64000b94f6e6109a4ab9089a3ab12e22f25521
:101f7400079a0134013a0792012210922a19129207
:101f8400302201e03255013412998c42fad1180002
:101f9400079a5730571b092b01dc303318000e9b6e
:101fa400192b06d820230343613b192b01d802f0d7
:101fb400c2f9129b00255c1cf0547b1e0793f5e6c6
:101fc4000a22069d069f95fbf2f56a43ba1a30323f
:101fd400013bf254079a0695013a07922ce7079bb6
:101fe400325c023bf3181a5401384be7099bdb06b9
:101ff40000d415e72e233355013411e70000e03fe8
:08200400000050430000f03f12
:020000040000fa
:10200c000000c0461b5b306d1b5b324a1b5b313bd7
:10201c0031482b2d2d2d2d2d2d2d2d2d2d2d2d2dc7
:10202c002d2d2d2d2d2d2d2d2d2d2d2d2d2d2d2dd4
:10203c002d2d2d2d2d2d2d2d2d2d2d2d2d2d2d2dc4
:10204c002d2d2d2d2d2d2d2d2d2d2d2d2d2d2d2db4
:10205c002d2d2d2d2d2d2d2b0d0a7c20454545206c
:10206c003139323a20456c656374726963616c2056
:10207c00616e6420456c656374726f6e6963732066
:10208c00456e67696e656572696e67204c61626f3b
:10209c007261746f72792056492020202020207c98
:1020ac000d0a7c202020202020202020204163614c
:1020bc0064656d6963205965617220323032342d4c
:1020cc00323032352c2053656d6573746572203255
:1020dc0020202020202020202020202020202020f4
:1020ec00202020202020207c0d0a7c202020202055
:1020fc0020202020202020202020202020202020d4
:10210c0020202020202020202020202020202020c3
:10211c0020202020202020202020202020202020b3
:10212c002020202020202020202020202020207c47
:10213c000d0a7c2053656e736f723a20506c616e81
:10214c00746f77657220504d5378787878204d6f86
:10215c0064756c652077697468204f6e2d446576c4
:10216c006963652050617273696e67202842696edd
:10217c00617279292020207c0d0a7c2020202020cf
:10218c002020202020202020202020202020202043
:10219c002020202020202020202020202020202033
:1021ac002020202020202020202020202020202023
:1021bc002020202020202020202020202020207cb7
:1021cc000d0a7c20417574686f723a202045737437
:1021dc00726164612028537570706c656d656e74e6
:1021ec00656420627920454545203135382f3139d9
:1021fc0032292020202020202020202020202020b8
:10220c00202020202020207c0d0a7c204461746535
:10221c003a2020202032303235202020202020204f
:10222c0020202020202020202020202020202020a2
:10223c002020202020202020202020202020202092
:10224c002020202020202020202020202020207c26
:10225c000d0a2b2d2d2d2d2d2d2d2d2d2d2d2d2de7
:10226c002d2d2d2d2d2d2d2d2d2d2d2d2d2d2d2d92
:10227c002d2d2d2d2d2d2d2d2d2d2d2d2d2d2d2d82
:10228c002d2d2d2d2d2d2d2d2d2d2d2d2d2d2d2d72
:10229c002d2d2d2d2d2d2d2b0d0a0d0a0000c04698
:1022ac004f4e00004f4646004d61696e3a207072e9
:1022bc006f675f7365747570282920636f6d706c20
:1022cc006574652e20457870656374696e6720426d
:1022dc00494e41525920504d5320646174612e2057
:1022ec0044454255475f4d4f44453a2025730d0aee
:1022fc000000c0464d61696e3a2042616e6e657297
:10230c002070656e64696e672064756520746f203b
:10231c0050422070726573732e0d0a000d0a5258cc
:10232c005f4348554e4b20282575206279746573a0
:10233c00293a2000253032582000c04625730d0a5a
:10234c000000c0464d61696e3a20504d535f5041bc
:10235c00525345525f4f4b2120446174612061768a
:10236c0061696c61626c652e0d0a0000504d532042
:10237c0044617461202d3e20504d312e303a202581
:10238c00752c20504d322e353a2025752c20504d71
:10239c0031303a202575202875672f6d3320415434
:1023ac004d290d0a0000c0464d61696e2045525200
:1023bc003a20736e7072696e7466206661696c6522
:1023cc006420666f7220706172736564206461743e
:1023dc00612e0d0a0000c0464d61696e20455252b7
:1023ec003a2055415254207374696c6c2062757399
:1023fc0079206265666f72652073656e64696e67bd
:10240c00206d61696e20504d5320646174612e0df6
:10241c000a00c0464d61696e204552523a20506107
:10242c007273656420504d5320646174612054585c
:10243c00206173796e63204641494c45442e0d0a48
:04244c000000c04686
:020000040000fa
:1024500080b500af41f60043c4f20003c42242211c
:10246000995000e0c04641f60043c4f20003c42284
:102470009b5840221340002bf4d040f25003c2f28c
:1024800000032c220021180001f008ff40f2500345
:10249000c2f2000340f20042c4f200221a6040f28d
:1024a0000043c4f2002301221a6000e0c04640f25b
:1024b0000043c4f20023db6901221340002bf5d155
:1024c00040f20043c4f2002304221a6040f20043a9
:1024d000c4f20023196840f20043c4f20023002232
:1024e000c4f210020a431a6040f20042c4f2002211
:1024f00040f20043c4f2002352685a6040f20043a5
:10250000c4f200232b4a9a8140f25003c2f2000326
:1025100000225a6240f25003c2f200034ef200124f
:10252000c0f2f5529a6240f20043c4f200235a68a6
:1025300040f20043c4f20023c32109040a435a6055
:1025400000e0c04640f20043c4f20023db690422ed
:102550001340002bf5d143f20023c4f200032022e4
:102560005a6043f20023c4f2000345220321995428
:1025700043f20023c4f2000332223021995440f286
:102580000043c4f200231a6840f20043c4f200235f
:1025900002210a431a6000e0c04640f20043c4f240
:1025a0000023db6902221340002bf5d1c046bd4653
:1025b00080bdc0462bf6ffff80b582b000af7860cb
:1025c0007b685b6963b17b685b690122da807b6849
:1025d0005b697a68128c92b21a817b6800225a6118
:1025e0007b6800229a617b680022da617b680022a6
:1025f0001a84c046bd4602b080bd90b587b000af1a
:102600007860396016217b1800221a8015203b184b
:1026100000221a707b681b681b7edbb21a00042341
:10262000134063b17b681b685b8b9ab27b18364999
:102630000a431a807b681b689a6a3b181a707b6889
:102640005b69002b59d01623fb181b8848f2030244
:10265000134048f20002934213d17b685b691a6809
:102660007b681b8c9bb2591c88b279680884d3188c
:102670001522ba1812781a707b683a68183303caa0
:1026800003c37b681b685b8b9bb21ab21623fb18d3
:1026900000215b5ef7210b401bb213431ab27b682b
:1026a0001b6892b25a837b681b8c9ab27b685b6909
:1026b0009b889bb29a4204d37b681800fff77cff8b
:1026c0001ce07b681b8c9bb2cbb17b6818331a0073
:1026d00039680c243b19180000f051fb7b68243347
:1026e0001a003b191100180000f04dfa031e06db1a
:1026f0007b681800fff760ff00e0c046c046c04698
:10270000bd4607b090bdc0460080ffff80b582b0d7
:1027100000af78607a6840f25003c2f20003110003
:102720001800fff76affc046bd4602b080bd80b505
:1027300082b000af78607b685b695a1e9341dbb260
:102740001800bd4602b080bd80b582b000af786091
:1027500039603b685bb13b681b6843b13b689b8851
:102760002bb13b689b884ff6f872934201d9002346
:1027700016e07b685b690bb1002311e03b68002227
:10278000da803b6800221a817b6800221a847b6809
:102790001833180000f0affa7b683a685a610123d9
:1027a0001800bd4602b080bd80b582b000af786031
:1027b0007a6840f25003c2f2000311001800fff7dc
:1027c000c3ff03001800bd4602b080bd80b500af56
:1027d00040f25003c2f200031800fff7a8ff030005
:1027e0001800bd4680bd80b500af40f25003c2f274
:1027f00000031800fff7e0fec046bd4680bdc0469e
:020000040000fa
:102800000023f0b506001500b1b0079103930799b6
:102810000b78002b00d10ae101235b420c9310ab33
:1028200000240e9380230b940d940f930b5d0bb13a
:10283000252b29d134b12200300001f0d4fc079bb4
:102840001b190793079b1a78252a00d0e4e040f271
:10285000020c012110270133049307930798037892
:102860002b2b1ad025d8202b1ad0232b1dd02a2b66
:1028700028d001f0abfb0d90079b1a78303a092a5b
:1028800031d801330793f7e70134cfe70b9b05936a
:102890000b4301300b930790e0e704230b9a0fe002
:1028a0000b9b0593059a08230ae00b9b05933b437a
:1028b000efe72d2bead0302bd9d162460b9b059345
:1028c0001343e6e72b6801301a1d1b6807902a6046
:1028d0000d93002b07da0b9a5b42059201220599b2
:1028e0000d934a400b920b9bda0702d502229343c9
:1028f0000b93079b1a782e2a0ed10022581c0c929b
:1029000007905a782a2a27d1023307932b681a1d79
:102910001b682a6005930c9307a801f0edfb079b49
:102920000700187801f002fd692800d182e034dc4c
:10293000632800d1d7e01adc252800d1e4e0612823
:1029400058d0049b01220793002352420c920b9310
:102950000d9300930232e1e001f038fb0c90079bed
:102960001a78303a092ad7d801330793f7e7642851
:1029700060d06728e5dc2a00390008a801f01efcb9
:10298000002800d1abe0079b0ba95a1c07921b78cb
:1029900008aa3000fef7a8fe3de0702800d17be0d9
:1029a00016dc6e2800d193e06f28cad12b000022dc
:1029b000390008a800f0dcff002800d18fe0079b59
:1029c00008aa01330ba93000079301f081f922e036
:1029d000752840d078284ed07328b2d1802f00d0ef
:1029e0007de0079b2a6801330793131d2b60126853
:1029f000002384e02a00390008a801f0dffb00284a
:102a000000d16ce0079b0ba95a1c07921b7808aaff
:102a10003000fff7bff82418039b1c19a34200dc09
:102a20007ee04f223f4b1a6001235b4203930398e1
:102a300031b0f0bd2b000122390008a800f098ff4a
:102a400000284cd0079b08aa01330ba9300007933c
:102a500000f0e9ffdfe72b000022390008a800f0b2
:102a600087ffe0b3079b08aa01330ba93000079347
:102a700001f0f8f9cfe72b000022390008a800f098
:102a800077ff60b3079b5a1c07921b7808aa0ba913
:102a9000300000f016febee72b000022f02108a84f
:102aa00000f066ffd8b1079b099a01330793089b92
:102ab00013435bb91c4801f0c5fb02000b9b1a498c
:102ac00000930d9b300001f08cf8a4e77823dde73c
:102ad000039b39001a1908a82b0001f030f9079b55
:102ae0000133079398e7802ff9d1079b01330793b0
:102af0002b681a1d1b682a6008aa137001230ba9f2
:102b0000300001f0dbf986e7802fe8d10122079b36
:102b1000013307930b9b049300930d9b0349d1e76b
:102b2000039474e6d8000020544300005a43000088
:020000040000fa
:102b300080b582b000af786019e07b685b6843f2d3
:102b40000062ccf265429a187b685a607b681b6809
:102b5000013305d07b681b685a1c7b681a6006e04d
:102b60007a684cf6ff13c3f69a33536007e07b682c
:102b70005a684cf6ff13c3f69a339a42ddd8c04622
:102b8000bd4602b080bd80b582b000af78603960cc
:102b90007b681a683b681b689a4202d201235b4239
:102ba00019e07b681a683b681b689a4201d90123c7
:102bb00011e07b685a683b685b689a4202d2012345
:102bc0005b4208e07b685a683b685b689a4201d9bf
:102bd000012300e000231800bd4602b080bd80b58f
:102be00082b000af3a0040f2c403c2f2000303cb4c
:102bf00003c23b005b6844f64032c0f24c029a18b4
:102c00003b005a600de03b005b6843f20062ccf28f
:102c100065429a183b005a603b001b685a1c3b00f7
:102c20001a603b005a684cf6ff13c3f69a339a4277
:102c3000e9d840f2cc03c2f200031b685a1c40f2f0
:102c4000cc03c2f200031a6040f2c403c2f20003d4
:102c50003a0003ca03c340f2cc03c2f200031b686c
:102c60005a1c40f2cc03c2f200031a604ef2100369
:102c7000cef2000348f25812c0f215029a60c04624
:102c8000bd4602b080bd80b500af4ef21003cef25b
:102c900000034ef660225a604ef21003cef200039b
:102ca00048f25812c0f215029a604ef21003cef2aa
:102cb000000307221a60c046bd4680bd80b584b0bf
:102cc00000af786040f2cc03c2f200031b68fb60e7
:102cd0007a6840f2c403c2f2000303cb03c240f29d
:102ce000cc03c2f200031b68fa689a42ead1c046dc
:102cf000bd4604b080bd90b587b000af78604ef29d
:102d00001003cef200039b684ef66022d31a7b615b
:102d10000c243b191800fff7d1ff20003b1859681d
:102d20007a6913005b019b1a9b009b18db001a0059
:102d30000c23b2fbf3f3ca183b185a600ee00c21c7
:102d40007b185b6843f20062ccf265429a187b18ec
:102d50005a607b181b685a1c7b181a600c217b1860
:102d60005a684cf6ff13c3f69a339a42e7d87b6849
:102d70007a1803ca03c3c046bd4607b090bd80b5ec
:102d800088b000aff860b9607a6014217b18002227
:102d90001a607b1800225a600023fb61bb681a6826
:102da0007b681b689a4207d2bb681a687b681b68fd
:102db000d21a7b181a6007e0bb681a687b681b6828
:102dc000d21a1423fb181a60bb681a687b681b6848
:102dd0009a4233d27b681a68bb681b68d31afb61be
:102de00015e0fb6943f2006cccf2654c6344fb6177
:102df0001422bb181b6823b9bb18012252421a6067
:102e000005e014217b181b685a1e7b181a60fa69aa
:102e10004cf6ff13c3f69a339a42e2d81422bb1839
:102e20001b6823b9bb18012252421a600ee014211c
:102e30007b181b685a1e7b181a6007e0bb685a682b
:102e40007b685b68d21a1423fb185a60fb68142253
:0e2e5000ba1803ca03c3c046bd4608b080bd11
:020000040000fa
:102e5e00f0b585b000930393009b02900c00160012
:102e6e00150001900f00002b00d0c9e08a424ad90c
:102e7e00100001f002f948b12023019f1b1adf4018
:102e8e00019b84408340854027430193aab22b0cbb
:102e9e00b7fbf3f1160094461a004a434e43bf1a8d
:102eae00019a3f04140c27430a00be4207d97f192a
:102ebe00013abd4203d8be4201d98a1e7f19be1bfc
:102ece00b6fbf3f14b436446f61a6b464c439b88b4
:102ede0036041e430f00b44207d97619013fb5429e
:102eee0003d8b44201d98f1e76191204341b3a430b
:102efe000a9b23b1c4401c6000230a994b6010004a
:102f0e00009905b0f0bd02b9ffde100001f0b5f872
:102f1e00b8bb0123a41b00932b0cb4fbf3f21f00d0
:102f2e0011005743aeb27143e41b019f24043f0cc2
:102f3e003c439446a1420ad9012764197f42bc44fe
:102f4e00a54204d8a14202d9023a94466419641ae1
:102f5e00b4fbf3f77b43e41a6b467e439b88240451
:102f6e001c433900a64207d964190139a54203d87a
:102f7e00a64201d9b91e641963461a04a41b0a435a
:102f8e00b6e7202223000199121ad3408440d14083
:102f9e00019a8540824021438c46290cb3fbf1f403
:102fae0001920a00624326009b1a6246afb27e432c
:102fbe00120c1b04134322009e4207d95b19013adf
:102fce009d4203d89e4201d9a21e5b199b1bb3fbe7
:102fde00f1f671435b1a614677438cb21b041c43b6
:102fee003100a74207d964190139a54203d8a74277
:102ffe0001d9b11e641912040a43e41b00928be737
:10300e00009b8b420ad90a9b002b00d1abe0029a9f
:10301e0059601a60002300931a0070e7039801f0bc
:10302e002cf8d8b9039ba34203d3029b02009e4205
:10303e000ad8029b01229e1b039b0196e41a029b57
:10304e00b342ad416d42671b0a9b0093002b00d12a
:10305e0055e7019982c30023009350e720231b1ae2
:10306e0001933300019a039fd34087401f432300ef
:10307e000199d340029a8440ca4022439446029a50
:10308e00390c8240b3fbf1f402920a00864062438f
:10309e00009626009b1a6246bdb26e43120c1b04ac
:1030ae00134322009e4207d9db19013a9f4203d8ef
:1030be009e4201d9a21edb199e1bb6fbf1f463469c
:1030ce0061436543761a360499b20e432300b54226
:1030de0007d9f619013bb74203d8b54201d9a31e51
:1030ee00f61912041a436b461c88009b711b8c4602
:1030fe00190c230096b2150c6c4373434d43714368
:10310e001e0c091971188c4202d9802464022d19e3
:10311e000c0c9bb209046519c918ac4503d30bd12d
:10312e00029b8b4208d2009b013ace1ab1428941d2
:10313e004942cf193100ed1b0a9b0093002b00d1a1
:10314e00dde6029b019c591a63465d1b029b8b4276
:10315e009b415b42ed1a2b00c140a340c540194371
:0a316e000a9b22c377e70a9b55e78e
:020000040000fa
:103178005061727365723a20526573657474696e32
:1031880067207061636b65742073746174652e20a9
:1031980043757272656e742073746174652077610b
:1031a800732025640d0a0000506172736572204512
:1031b80052523a20427566666572206f766572666d
:1031c8006c6f77206265666f7265207265736574cf
:1031d8002e204964783a2025640d0a0050617273e4
:1031e8006572204552523a2045787065637465646b
:1031f80020534232202830783444292c20676f74b9
:10320800203078253032582e2052657365747469e1
:103218006e672e0d0a00c0465061727365723a20bf
:103228004578706563746564207061796c6f61645a
:10323800206c656e203d2025752028307825303497
:1032480058290d0a0000c046506172736572204506
:1032580052523a20496e76616c6964206c656e67db
:1032680074682025752e20526573657474696e67bd
:103278002e0d0a005061727365723a2043616c63c7
:103288002043533a203078253034582c2052656337
:10329800762043533a203078253034580d0a000000
:1032a8005061727365723a20436865636b73756d1c
:1032b800204f4b210d0a0000506172736572204542
:1032c80052523a205061636b657420746f6f20739b
:1032d800686f7274202825752920666f72206675bc
:1032e8006c6c2070617273652c2062757420435376
:1032f800204f4b2e0d0a00005061727365722045f5
:1033080052523a20436865636b73756d206d69731b
:103318006d617463682e20526573657474696e6795
:103328002e0d0a00506172736572204552523a2080
:10333800556e6b6e6f776e207374617465202564ab
:103348002e20526573657474696e672e0d0a00002d
:10335800cc0d0000fa0d0000780e0000bc0e000035
:0c336800580f0000b20f0000dc0f000046
:020000040000fa
:10337400f0b40125ed070f005f405ad48b4200d111
:10338400824205d950404240504059404b40594038
:103394004e18760ddf187f0d3bd0741c640529d0c0
:1033a400f41b352c26d80e0ddb022b43db0ac90295
:1033b4002943c9121700202c1ed2e741e24057408e
:1033c400e3415a40a340e3405a4000248018594145
:1033d4000ad3b21c520521d0c207012f6241170043
:1033e4004008cb0718434908013636054208af4167
:1033f40060417141f0bc7047203c06d01f00e7419a
:10340400e3405f400024012a6741c0186141ebd3c7
:10341400dfe7002eeed129400020ebe7013631052d
:103424000020e7e7e742e5d10020c143090dc904c4
:10343400e0e76b400e00871a9e4104d26e40c01b29
:10344400b141d21973414e18df18ac0ae642e9d2f1
:10345400760d7f0d31d0f41b362ccbd8b4460e0d2f
:10346400db022b43db0ac9022943c90a012c32d8e7
:1034740004d1d4075208df073a435b08ef0a6442d9
:10348400904199411ed0002239424dd12419404126
:1034940049410124394204d10134001849413942d7
:1034a400fad06246a24204d9361b013e3605891978
:1034b400a0e7f10ac90700209ce736429ad1002010
:1034c400002197e70200224394d0b842ded20100e3
:1034d40020002024e3d1202c13dd203ce2411700fe
:1034e400a240e2405740e3415a40a340e3405a40df
:1034f400012fbf410137174300227c42984191417b
:103504000ce01700e741e2405740e3415a40a34032
:10351400e3405a407c429041994100220f0303d278
:10352400013e241940414941013e36054708ac415a
:0835340050417141f0bc7047e9
:020000040000fa
:10353c0006d128b9f54203d800d30ab96d0d09d1cb
:10354c000020c143090dc904f0bdf9d11242f7d1d5
:10355c00640df5d00020c14349054908a6e00020c0
:10356c006146f0bdf0b50127ff070e005e403e40fe
:10357c00b446be0a4c18dd18f442d9d2f542e4d256
:10358c00640decd06d0dead06419c9023943460db7
:10359c00c0023143db023b43db0a10b48e4685b2da
:1035ac0097b26f43140c6c433e0ca419260c2404e4
:1035bc00bfb227439cb26c43a419190c6943250c68
:1035cc00a4b249190d04090c6419000c95b24543b9
:1035dc003e0c76193743bfb2360c150c4543ad196a
:1035ec00a6b2240cad192e0437432e0c36199db2fd
:1035fc004543ad19acb22e0c89191d0c45436d1801
:10360c002e04290c3443704680b295b245433e0ccf
:10361c0076193743bfb2360c150c4543ad19a6b21b
:10362c00ad19240c2e0437432e0c36199db245438c
:10363c00ad19acb22e0c89191d0c45436d182e0416
:10364c003443290c75462d0c90b268433e0c8019fe
:10365c000604bfb23e43070ca0b23f18120c6a43db
:10366c00d019020c80b2240ca4189ab26a43121915
:10367c0014042043120c89181b0c6b43c91810bc82
:10368c0001273d05294203d1b61940414941013c6e
:10369c00ff077d0d013d641b0bdb6d00ac4209daad
:1036ac00240500254208be4168416141664631430c
:0636bc00f0bd54e74ee7eb
:020000040000fa
:1036c200f0b58fb00d934b680c9006938b680d008c
:1036d2000793cb6816000393069b0f68002b42db0f
:1036e20002239f4310233b400a93079b04930a9ba8
:1036f2003bb1726833681343079a13b11300023b5c
:10370200049308233b400b935a1e9341049ad31a05
:1037120004933368039a0893736809932b695c1eb8
:1037220000231355069b0593012c1fdc0a9b002bdb
:1037320050d10b9b1bb12023039a013c13552b69db
:1037420000975a1e039b121b19190c98079b00f035
:1037520047fa0c9b5b68db0503d56b68984200da7d
:1037620018000fb0f0bd01230693bbe7089b099a2e
:1037720013435bb9059b002b08dc069a049b9b1a3a
:10378200059a9b18002bd1ddbb07cfd50f23089ad2
:10379200013c134018005730092b01dc303318006c
:1037a2000d9b413b192b06d820230343613b192b68
:1037b20001d800f0c1fd039b1855059b013b059301
:1037c200099b1a07089b1b091a43099b08921b09ac
:1037d2000993a9e70cce1343002baad0039b0d9aa1
:1037e2001b19013b1a703023039a023c1355a0e7c0
:020000040000fa
:1037f200f0b40125ed070c005c402c40a446ae0a53
:103802004c18df18f4423dd2f74244d2640d4ad03c
:103812007f0d3bd0e41bc9022943cf0adb022b43b5
:10382200db0a0600b61a9f4104d2013cb6197f4159
:10383200b6185f416812800d241836dd00188442e4
:1038420024d8e80c0021b6197f41b61a9f4103d350
:1038520040414941f7d304e0b6185f41001849419d
:10386200f1d32405b6197f41b61a9f4105d33743d8
:10387200c20717430022012f5041614162461143a2
:10388200f0bc70470ad148b9f74207d20020c143c1
:10389200490d0905f2e70ab9f74206d00020c143f3
:1038a200090dc904ece77f0df8d000206146e7e777
:020000040000fa
:0238b20070475d
:020000040000fa
:1038b40040f2fd724b005b0df0b55c1e944242d8a1
:1038c400284a9e182ad4332e27dc274a9b182ed444
:1038d400120cc0f20f02da404ff6ff730700c0f279
:1038e4000f039743f3403c000f00024019409f43ed
:1038f4000a433d007ab1002f0dda20235b42f11810
:1039040029d480204003c840020080214903f140ab
:103914000b00a4185d4120002900f0bd00200029ff
:1039240001db0021f9e70021cbf6f071f5e7202255
:103934004ff6ff73921bc0f20f03934001225242d1
:10394400f2401a43c8e7002be7d10022c90fcb0786
:1039540010001900e1e720218020891b40038840e2
:0c3964000200d2e701fcffffe1fbffffc7
:020000040000fa
:1039700010b588293ad014dc81294ad003dc80298b
:1039800047d0002010bd822910d08429f9d11968b0
:103990002ab30a1d1a6000228b5e0360db174360a6
:1039a00010e0a0292ed00fdc9029ead11968072455
:1039b0006ab30919a1430a0008321a600b684c68ff
:1039c000036044600120dde7c02901d0f029d8d18f
:1039d0001a68111d1960136803600023dfe70c1dce
:1039e0001c600b689bb203604260ebe7196822b170
:1039f0000a1d1a600023cb56cfe70c1d1c600b6814
:103a0000dbb2f0e71a68111d19601368c5e70731ca
:103a1000d0e719681ab10a1d1a600b68bde70c1dc2
:063a20001c600b68dfe7eb
:020000040000fa
:103a2600f0b54b6889b005930b6807009c46079371
:103a3600cb680c008e6810685168cd0f0493002d7a
:103a460041d00b000200002150429941059b002bfa
:103a560007db022263469343079315b9079b5a0770
:103a660028d5731e07aa02920a22009301920b0020
:103a76000200200000f0eff815b9079b5a071dd584
:103a860001382d2305b9023b049a135423695a1ea3
:103a9600049b121a1918079b38000093330000f094
:103aa6009df87b68db0503d56368984200da180049
:103ab60009b0f0bd1b07db0ff31ad3e71b07e5d5eb
:0e3ac60001382023e0e7059b002bc2dac6e79b
:020000040000fa
:103ad400e0000020040000000100000000000000dd
:103ae400a80000201c00000000000000dc000020f2
:103af4000200000000000000500000202c00000024
:103b040000000000c40000200c00000000000000c1
:103b14007c0000202c00000000000000d0000020e9
:103b2400040000000000000000000020500000001d
:103b340000000000d4000020080000000000000085
:103b4400e400002004000000010000000000000068
:103b54000000000000000000666666666666666631
:020000040000fa
:103b640040f20003c0f2000323b140f20003c0f2ac
:103b74000003984740f20003c0f2000323b140f26f
:103b84000003c0f20003984700f09afa40f20003e1
:103b9400c0f200037f2293434ef60052cef200029d
:103ba400936043f60963c0f20003984740f20003b0
:103bb400c0f2000323b140f20003c0f200039847af
:103bc40040f20003c0f2000323b140f20003c0f24c
:0e3bd4000003984700210020fdf77df8fee772
:020000040000fa
:103be200f0b51d00012389b014000e9a06001a4098
:103bf200039102920ab9a5420ad822000399300021
:103c020000f0f0faa54203d82500280009b0f0bd63
:103c12002f1b01973a00102f00d91022202104a84f
:103c220000f03bfb019b0f2b0ed80f2204a93a4058
:103c3200300000f0d7fa029b002be6d12200039954
:103c4200300000f0cffae0e7102204a9300000f0c3
:0a3c5200c9fa019b103b0193e4e75f
:020000040000fa
:103c5c00f7b5040019000a9fe368666800933b6897
:103c6c00100001932369013b1c00002e00da012691
:103c7c000022009dea5435000123002c02dce3b144
:103c8c002000febd02000a434ab9002d07dc089a49
:103c9c00921b5219002af2dd019a9207efd5099b6b
:103cac00099adb1700f06cf98c460099013c130063
:103cbc0030320a55013d6146dfe710233a689a43da
:043ccc003a60dde796
:020000040000fa
:103cd000f0b50b680c008f68cd68496887b00600a6
:103ce0000593002902db02218b43059305a9536844
:103cf000126802910821009701912000fff7aeffa2
:103d0000059bdb0602d5302301382b54059b1b078e
:103d100002d5202301382b54236929185a1e059bec
:103d2000121a009330003b00fff75bff7368db055e
:0e3d300003d56368984200da180007b0f0bdb2
:020000040000fa
:103d3e0010b584291fd007dc812915d0822922d005
:103d4e00802911d0002010bd90291cd008dc8829b4
:103d5e00f8d119680c1d1c600b6803601a7010e016
:103d6e00a02901d0c029edd119680c1d1c600b686b
:103d7e0003601a6005e019680c1d1c600b68036077
:103d8e001a800120dfe719680c1d1c600b680360a8
:083d9e001a60d2175a60f4e725
:020000040000fa
:023da600704764
:020000040000fa
:103da800f0b59bb004000d00160000214c2207a8b6
:103db8001f0000f06ffa01235b4202930433ff33c4
:103dc800039304b901ac04940595002305b16b1e57
:103dd8000693002d06da4f220120084b40421a6054
:103de8001bb0f0bd0db1002323703a00310002a8ca
:103df8000894079400f016faf2e7c046d8000020ad
:020000040000fa
:103e080000230e4a10b513600d4a0e4c13600e4a7b
:103e180013600e4a13600e4a13600e4a5362136110
:103e280001339360fff7bbfffff7b9ff0a4b9c42d2
:103e380000d310bd08cc9847f8e7c046d40000204e
:103e48000c0000206801000008000020000000208d
:0c3e580004000020100000206c0100009d
:020000040000fa
:103e6400f0b50b680c008f68cd68496887b0060010
:103e74000593002902db02218b43059305a95368ae
:103e8400126802910a21009701912000fff7e4fed5
:103e9400236929185a1e059b121a009330003b000f
:103ea400fff79dfe7368db0503d56368984200da6b
:063eb400180007b0f0bd8c
:020000040000fa
:103ebc00f0b50f00150087b0039007220e4904a837
:103ecc001c0000f0eff9bb687e6802933f6805b9ef
:103edc0004ad1cb9280000f0aff90400002e02db81
:103eec00b44200d934000097029b220029000398a9
:0c3efc00fff771fe07b0f0bd6c43000042
:020000040000fa
:103f080030b401256d054c00e54215d85c00e5424a
:103f180012d80c001c436400044314430fd005d28c
:103f280082428b418041013030bc704790429941b8
:103f38008041013030bc7047002030bc7047012000
:043f480030bc7047d2
:020000040000fa
:103f4c0010b5054c227832b9044b13b1044800e08b
:103f5c0000bf0123237010bda8000020000000004a
:103f6c0000000000034b10b51bb10349034800e0ef
:103f7c0000bf10bd00000000ac00002000000000dd
:020000040000fa
:103f8c00002b11d1002a0fd1002900d1002802d01a
:103f9c000021c943081c07b4024802a14018029032
:103fac0003bdc046d503000003b4684601b50298b2
:103fbc00fef74fff019b9e4602b00cbc7047c046fb
:020000040000fa
:103fcc00030010b51a78202a0dd0110009390429e4
:103fdc0009d900212b2a02d02d2a01d1013101331c
:103fec0000200a2404e00133ece760430133801a1b
:0e3ffc001a78303a092af8d901b9404210bdae
:020000040000fa
:10400a0030b401256d054c00e54215d85c00e54247
:10401a0012d80c001c436400044314430cd005d28c
:10402a0082428b418041404230bc70479042994164
:0e403a008041404230bc7047002030bc7047cf
:020000040000fa
:1040480030b401256d054c00e54215d85c00e54209
:1040580012d80c001c436400044314430cd005d24e
:10406800904299418041404230bc704782428b4126
:0e4078008041404230bc7047002030bc704791
:020000040000fa
:104088001c2101231b04984201d3000c10391b0a80
:10409800984201d3000a08391b09984201d3000944
:1040a800043902a2105c40187047c046040302029b
:0c40b800010101010000000000000000f8
:020000040000fa
:1040c40010b50a48016821b9436813b9fff7effb3b
:1040d40010bd04008368064a9bb20c349b009b58b5
:1040e40042682000984780002018ebe7d43a00008b
:0440f40088420000fe
:020000040000fa
:1040f80070b5040000200a4b4200d55c15b9d218ef
:10410800507870bd216801300e78c0b2ae4204d13b
:10411800034b0131d218507821600a28ebd9f0e717
:0441280072420000df
:020000040000fa
:10412c00f4464a1805d200f02ef801d5c017400805
:10413c00604701235b05d34206d200f024f801d579
:10414c000120c0074042604701d10042f5d0d01792
:04415c004008704760
:020000040000fa
:1041600070b4012676054c005d00e6420cd8ee42a4
:104170000ad825430543154303d0994204d1904200
:0e41800002d1012070bc7047002070bc704757
:020000040000fa
:10418e004a0010d2520d03231b02ff33d21a0ad457
:10419e0052421f3209d4400dc90208430123db07e6
:0e41ae001843d040704700207047d01770476c
:020000040000fa
:1041bc00002380290fdb812901dd83290bd1072105
:1041cc00136807338b431900083111601a685b6858
:0a41dc0002604360012318007047e1
:020000040000fa
:1041e60070b505690400954200d915005db12a0035
:1041f600606900f05af8226963695b19551b002251
:08420600636125611a7070bdaf
:020000040000fa
:10420e00002310b5934206d103201840421e904160
:0e421e009b08c01810bdc45ccc540133f2e7fd
:020000040000fa
:10422c0013b50400019201aafef7e4fa6368db06f9
:08423c0001d50120404216bd2e
:020000040000fa
:10424400037833b1030001331a78002afbd1181a1a
:0842540070470020fce7c046a2
:020000040000fa
:10425c000cb407b504ab04cb0193fff79ffd03b07f
:06426c0008bc02b0184777
:020000040000fa
:1042720068076c094c836a9074a07ac000806888d1
:0642820000846c82008143
:020000040000fa
:10428800eb4200000f420000754300007543000038
:04429800754300006a
:020000040000fa
:10429c0032b10300c9b28218197001339342fbd1b9
:0442ac007047c04651
:020000040000fa
:1042b00010b52ab10023cc5cc45401339342fad127
:0442c00010bdc04627
:020000040000fa
:1042c40003000a7818001a7001310133002af8d16a
:0442d4007047c04629
:020000040000fa
:1042d800f0b40125ed076b4043f27b34c0f20004d3
:0242e80020476d
:020000040000fa
:1042ea008a18914201d10020704700230b700131d6
:0242fa00f7e7e4
:020000040000fa
:1042fc00494e4600696e66004e414e006e616e007e
:020000040000fa
:10430c00494e4600696e66004e414e006e616e006d
:020000040000fa
:10431c0010b5fff727f9029a039bfff725f810bd9c
:020000040000fa
:0e432c000300413b192b01d820231843704792
:020000040000fa
:0e433a000300613b192b01d85f231840704728
:020000040000fa
:0c43480010b50400fff7baff200010bd04
:020000040000fa
:08435400286e696c29002500a8
:020000040000fa
:08435c0010b5fff7e5ff10bded
:020000040000fa
:0843640010b5fff7e8ff10bde2
:020000040000fa
:07436c00286e756c6c29003e
:020000040000fa
:04437400002070476e
:020000040000fa
:04437800002070476a
:020000040000fa
:04437c000020704766
:020000040000fa
:044380000020704762
:020000040000fa
:044384007047c04678
:00000001FF
