:020000040000fa
:10000000f07f0020611800003f1300003f13000044
:1000100000000000000000000000000000000000e0
:100020000000000000000000000000003f1300007e
:1000300000000000000000003f130000bf1000009f
:100040003f1300003f1300003f1300003f13000068
:100050003f130000a70500003f1300003f130000fe
:100060003f1300003f1300003f1300003f13000048
:100070003f1300003f1300003f1300003f13000038
:100080003f1300003f1300003f1300003f13000028
:100090003f1300003f1300003f1300003f13000018
:1000a0003f1300003f1300003f1300003f13000008
:1000b0003f1300003f1300003f1300003f130000f8
:1000c0003f1300003f1300003f1300003f130000e8
:1000d0003f1300003f1300003f1300003f130000d8
:1000e0003f1300003f1300003f1300003f130000c8
:1000f0003f1300003f1300003f1300003f130000b8
:100100003f1300003f1300003f1300003f130000a7
:100110003f1300003f1300003f1300003f13000097
:100120003f1300003f1300003f1300003f13000087
:100130003f1300003f1300003f1300003f13000077
:100140003f1300003f1300003f1300003f13000067
:0c0150003f1300003f1300003f130000ad
:020000040000fa
:10015c00f8b5c046f8bc08bc9e4670476119000053
:10016c00f8b5c046f8bc08bc9e4670473d19000067
:020000040000fa
:10017c0080b582b000af0200fb1d1a70fb1d1b780e
:10018c007f2b12d8fb1d1b781a001f231a4011005d
:10019c004ef20013cef20003fa1d127852b252093d
:1001ac000120884001009200d150c046bd4602b0eb
:1001bc0080bd90b583b000af02003960fb1d1a7092
:1001cc00fb1d1b787f2b2fd84ef20013cef20003b1
:1001dc00fa1d127852b29208c0329200d358fa1d0e
:1001ec001278110003220a40d200ff2191400a002c
:1001fc00d2431a4010003b689b01ff221a40fb1da2
:10020c001b78190003230b40db009a4011004ef2bf
:10021c000013cef20003fa1d127852b29208014379
:10022c00c0329200d15037e04ef60053cef20003ac
:10023c00fa1d127811000f220a40083a9208063271
:10024c0092009b1804331b68fa1d127811000322cc
:10025c000a40d200ff2191400a00d2431a401000fc
:10026c003b689b01ff221a40fb1d1b7819000323de
:10027c000b40db009a404ef60053cef20003f91d02
:10028c0009780c000f2121400839890802430631f6
:10029c0089005b1804331a60c046bd4603b090bd9c
:1002ac0080b582b000af00237b6040f20043c4f203
:1002bc00000301229a7140f20043c4f200030222af
:1002cc009a7000e0c04640f20043c4f200039b79f0
:1002dc00dbb21a0001231340002bf3d040f2004391
:1002ec00c4f2000301229a7145f20003c4f2001318
:1002fc0004225a6041f60003c4f2000340f20232b9
:10030c001a6200e0c04641f60003c4f20003da684a
:10031c008023db021340002bf4d041f20003c4f223
:10032c00000300221a8600e0c04641f20003c4f22a
:10033c0000031a6980235b041340002bf4d046f2af
:10034c002003c0f280031b687b607a68fc23db050a
:10035c0013407b607b68db0b7b607b6840f2002288
:10036c0013437b6041f20003c4f200037a685a63c2
:10037c0000e0c04641f20003c4f200031a69802376
:10038c005b041340002bf4d041f20003c4f20003d1
:10039c001b8e9ab241f20003c4f2000302210a43fd
:1003ac0092b21a8600e0c04641f20003c4f2000388
:1003bc001a6980235b041340002bf4d041f60043f0
:1003cc00c4f2000340f205129a6200e0c04641f606
:1003dc000043c4f200035b6810221340002bf5d1dc
:1003ec0041f60043c4f2000340f20712c0f20202cd
:1003fc001a6200e0c04641f60043c4f200035b6899
:10040c0004221340002bf5d1c046bd4602b080bd7e
:10041c0080b500af41f60043c4f2000390224221a4
:10042c00995000e0c04641f60043c4f2000390220c
:10043c009b5842221340002bf4d042f60023c4f206
:10044c00000301221a7000e0c04642f60023c4f2f9
:10045c0000035b6801221340002bf5d142f6002308
:10046c00c4f200030f225a63c046bd4680bd80b55e
:10047c0000af42f60023c4f200031b78dab242f656
:10048c000023c4f2000302210a43d2b21a7000e026
:10049c00c04642f60023c4f200035b6802221340fc
:1004ac00002bf5d1c046bd4680bd80b500af40f2f3
:1004bc000023c4f2002301221a70c046c046c04675
:1004cc00c046bd4680bd80b500af43f20023c4f2e8
:1004dc00000348f200025a6143f20023c4f2000305
:1004ec0048f200029a6043f20023c4f200034f2248
:1004fc0000219954c046bd4680bd80b586b000af82
:10050c000200bb1d1a803b1d0a1c1a8010217b188f
:10051c0000221a607b1800225a6008203b18002227
:10052c001a603b1800225a603b1d00229b5edb4385
:10053c001bb2ba1d0020125e13401ab2bb1d1a80ea
:10054c00bb1d1b880122134033b17b181b6848f27a
:10055c0000021a437b181a603b1d1b8801221340b2
:10056c003bb108217b181b6848f200021a437b1828
:10057c001a6043f20023c4f200031022ba18126866
:10058c009a6143f20023c4f200030822ba181268dd
:10059c005a61c046bd4606b080bd80b500af40f282
:1005ac00d803c2f200031b889bb2032293439ab276
:1005bc0040f2d803c2f200031a8042f60023c4f2c0
:1005cc0000039b6b0422134073b940f2d803c2f2b0
:1005dc0000031b889bb2012213439ab240f2d8034a
:1005ec00c2f200031a800de040f2d803c2f20003fd
:1005fc001b889bb2022213439ab240f2d803c2f278
:10060c0000031a8042f60023c4f200035a6942f632
:10061c000023c4f2000304210a435a61c046bd46bc
:10062c0080bd80b500af43f20023c4f200038022ea
:10063c0012045a6043f20023c4f200035722032130
:10064c00995443f20023c4f200033b229b5cdab2c0
:10065c0043f20023c4f200030f210a40d1b23b2223
:10066c00995442f60023c4f200031a6b42f600239d
:10067c00c4f2000304210a431a6342f60023c4f2b5
:10068c000003da6942f60023c4f200030c490a4065
:10069c00da6142f60023c4f20003da6942f6002361
:1006ac00c4f2000340f600310a43da6142f600233b
:1006bc00c4f2000304221a61c046bd4680bdc04688
:1006cc00fff0ffff80b582b000afba1d40f2d80337
:1006dc00c2f200031b88138040f2d803c2f200035d
:1006ec0000221a80bb1d1b881800bd4602b080bdbd
:1006fc0080b500afbff35f8f62b603210520fff713
:10070c0058fd01235b4203211800fff752fd052021
:10071c00fff72efd01235b421800fff729fdc046b1
:10072c00bd4680bd80b500affff7bafdfff7bdfe3b
:10073c00fff76efefff775fffff7c5fe00f01ef822
:10074c0000f088fafff793fe00f007fdfff7d0ffeb
:10075c00c046bd4680bd80b582b000af3b001800de
:10076c0000f033fd3b00180000f04bf93b00180083
:0c077c0000f0cefbc046bd4602b080bdc0
:020000040000fa
:1007880080b500af41f60043c4f20003d0224221f5
:10079800995000e0c04641f60043c4f20003d0225d
:1007a8009b5840221340002bf4d040f27c03c2f245
:1007b80000032c220021180001f00ef940f27c03fe
:1007c800c2f2000341f20002c4f200221a6041f2b0
:1007d8000003c4f2002301221a6000e0c04641f27f
:1007e8000003c4f20023db6901221340002bf5d17a
:1007f80041f20003c4f2002304221a6041f200030c
:10080800c4f20023196841f20003c4f20023002255
:10081800c4f210020a431a6041f20002c4f2002234
:1008280041f20003c4f2002352685a6041f2000307
:10083800c4f200232c4a9a8140f27c03c2f20003de
:1008480000225a6240f27c03c2f200034ef6c23222
:10085800c0f20b029a6241f20003c4f200235a6804
:1008680041f20003c4f20023c32109040a435a6079
:1008780000e0c04641f20003c4f20023db69042211
:100888001340002bf5d143f20023c4f20003842265
:1008980040f20031995043f20023c4f20003c82209
:1008a8000321995443f20023c4f20003b422032124
:1008b800995441f20003c4f200231a6841f200037c
:1008c800c4f2002302210a431a6000e0c04641f244
:1008d8000003c4f20023db6902221340002bf5d188
:1008e800c046bd4680bdc0462bf6ffff80b582b02e
:1008f80000af78607b685b6963b17b685b690122e4
:10090800da807b685b697a68128c92b21a817b689c
:1009180000225a617b6800229a617b680022da61b2
:100928007b6800221a84c046bd4602b080bd80b5ef
:1009380086b000af786039601623fb1800221a8051
:100948001523fb1800221a707b681b681b7edbb21c
:100958001a0001231340002b51d07b681b8a9bb2dd
:1009680083b17b68db68591c7a68d1601b78dab27e
:100978007b681b689a627b681b8a9bb2013b9ab2b0
:100988007b681a827b681b8a9bb2002b37d17b68f5
:100998000022da607b681b899bb22bb37b685b689b
:1009a8001a687b68da607b685b689b889ab27b68a8
:1009b8001a827b685b6808331a007b685a607b6818
:1009c8001b899bb2013b9ab27b681a817b68db6802
:1009d8001bb17b681b8a9bb28bb97b680022da60eb
:1009e8007b6800221a820ae07b681b6801221a755c
:1009f8007b6800225a607b680022da60c046c046e5
:100a0800bd4606b080bd80b582b000af78607a6818
:100a180040f27c03c2f2000311001800fff787ffc1
:100a2800c046bd4602b080bd80b582b000af7860d8
:100a38007b681b8a9bb25bb97b681b899bb23bb9fd
:100a48007b681b681b7edbb21a00012313400bb9bd
:100a5800012300e000231a1c01231340dbb2180015
:100a6800bd4602b080bd80b588b000aff860b960ff
:100a78007a601e23fb18082252421a80bb680bb109
:100a88007b680bb901233ae07b68202b01d900234e
:100a980035e0fb681800fff7c7ff03000bb1002320
:100aa8002de00023bb6100237b611ce0bb69db00f8
:100ab800ba68d3189b881e22ba1812889a4201d2a3
:100ac80000231ce0bb69db00ba68d3189a881e2192
:100ad8007b18791809888a1a1a807b6901337b6127
:100ae800bb690133bb61ba697b689a42ded3fb6894
:100af800ba685a607b689ab2fb681a8101231800a9
:100b0800bd4608b080bd80b582b000af78607b6814
:100b180000221a817b6800225a607b6800221a82b0
:100b28007b680022da60c046bd4602b080bd80b551
:100b380082b000af786039603a68796840f27c0327
:100b4800c2f200031800fff78eff03001800bd462d
:100b580002b080bd80b500af40f27c03c2f2000352
:100b68001800fff761ff03001800bd4680bd80b57f
:100b780000af40f27c03c2f200031800fff7c3ff86
:100b8800c046bd4680bd80b582b000af78607b6846
:100b98005b695a1e9341dbb21800bd4602b080bda6
:100ba80080b582b000af786039603b685bb13b6864
:100bb8001b6843b13b689b882bb13b689b884ff609
:100bc800f872934201d9002316e07b685b690bb188
:100bd800002311e03b680022da803b6800221a817a
:100be8007b6800221a847b681833180000f0effa3b
:100bf8007b683a685a6101231800bd4602b080bd7f
:100c080080b582b000af78607a6840f27c03c2f2a7
:100c1800000311001800fff7c3ff03001800bd46ca
:100c280002b080bd80b500af40f27c03c2f2000381
:100c38001800fff7a8ff03001800bd4680bd80b567
:100c480000af40f27c03c2f200031800fff74efe2b
:080c5800c046bd4680bdc04648
:020000040000fa
:100c600080b500af41f60043c4f20003c422422124
:100c7000995000e0c04641f60043c4f20003c4228c
:100c80009b5840221340002bf4d040f25003c2f294
:100c900000032c220021180000f0a2fe40f25003b5
:100ca000c2f2000340f20042c4f200221a6040f295
:100cb0000043c4f2002301221a6000e0c04640f263
:100cc0000043c4f20023db6901221340002bf5d15d
:100cd00040f20043c4f2002304221a6040f20043b1
:100ce000c4f20023196840f20043c4f2002300223a
:100cf000c4f210020a431a6040f20042c4f2002219
:100d000040f20043c4f2002352685a6040f20043ac
:100d1000c4f200232b4a9a8140f25003c2f200032e
:100d200000225a6240f25003c2f200034ef6c23271
:100d3000c0f20b029a6240f20043c4f200235a68e8
:100d400040f20043c4f20023c32109040a435a605d
:100d500000e0c04640f20043c4f20023db690422f5
:100d60001340002bf5d143f20023c4f200032022ec
:100d70005a6043f20023c4f2000345220321995430
:100d800043f20023c4f2000332223021995440f28e
:100d90000043c4f200231a6840f20043c4f2002367
:100da00002210a431a6000e0c04640f20043c4f248
:100db0000023db6902221340002bf5d1c046bd465b
:100dc00080bdc0462bf6ffff80b582b000af7860d3
:100dd0007b685b6963b17b685b690122da807b6851
:100de0005b697a68128c92b21a817b6800225a6120
:100df0007b6800229a617b680022da617b680022ae
:100e00001a84c046bd4602b080bd90b587b000af21
:100e10007860396016217b1800221a8015203b1853
:100e200000221a707b681b681b7edbb21a00042349
:100e3000134063b17b681b685b8b9ab27b183649a1
:100e40000a431a807b681b689a6a3b181a707b6891
:100e50005b69002b59d01623fb181b8848f203024c
:100e6000134048f20002934213d17b685b691a6811
:100e70007b681b8c9bb2591c88b279680884d31894
:100e80001522ba1812781a707b683a68183303caa8
:100e900003c37b681b685b8b9bb21ab21623fb18db
:100ea00000215b5ef7210b401bb213431ab27b6833
:100eb0001b6892b25a837b681b8c9ab27b685b6911
:100ec0009b889bb29a4204d37b681800fff77cff93
:100ed0001ce07b681b8c9bb2cbb17b6818331a007b
:100ee00039680c243b19180000f0b9f97b682433e9
:100ef0001a003b191100180000f0b5f8031e06dbbc
:100f00007b681800fff760ff00e0c046c046c0469f
:100f1000bd4607b090bdc0460080ffff80b582b0df
:100f200000af78607a6840f25003c2f2000311000b
:100f30001800fff76affc046bd4602b080bd80b50d
:100f400082b000af78607b685b695a1e9341dbb268
:100f50001800bd4602b080bd80b582b000af786099
:100f600039603b685bb13b681b6843b13b689b8859
:100f70002bb13b689b884ff6f872934201d900234e
:100f800016e07b685b690bb1002311e03b6800222f
:100f9000da803b6800221a817b6800221a847b6811
:100fa0001833180000f017f97b683a685a6101237a
:100fb0001800bd4602b080bd80b582b000af786039
:100fc0007a6840f25003c2f2000311001800fff7e4
:100fd000c3ff03001800bd4602b080bd80b500af5e
:100fe00040f25003c2f200031800fff7a8ff03000d
:100ff0001800bd4680bd80b500af40f25003c2f27c
:1010000000031800fff7e0fec046bd4680bdc046a5
:020000040000fa
:1010100080b582b000af786019e07b685b6843f20e
:101020000062ccf265429a187b685a607b681b6844
:10103000013305d07b681b685a1c7b681a6006e088
:101040007a684cf6ff13c3f69a33536007e07b6867
:101050005a684cf6ff13c3f69a339a42ddd8c0465d
:10106000bd4602b080bd80b582b000af7860396007
:101070007b681a683b681b689a4202d201235b4274
:1010800019e07b681a683b681b689a4201d9012302
:1010900011e07b685a683b685b689a4202d2012380
:1010a0005b4208e07b685a683b685b689a4201d9fa
:1010b000012300e000231800bd4602b080bd80b5ca
:1010c00082b000af3a0040f2c403c2f2000303cb87
:1010d00003c23b005b6844f64032c0f24c029a18ef
:1010e0003b005a600de03b005b6843f20062ccf2cb
:1010f00065429a183b005a603b001b685a1c3b0033
:101100001a603b005a684cf6ff13c3f69a339a42b2
:10111000e9d840f2cc03c2f200031b685a1c40f22b
:10112000cc03c2f200031a6040f2c403c2f200030f
:101130003a0003ca03c340f2cc03c2f200031b68a7
:101140005a1c40f2cc03c2f200031a604ef21003a4
:10115000cef2000348f25812c0f215029a60c0465f
:10116000bd4602b080bd80b500af4ef21003cef296
:1011700000034ef660225a604ef21003cef20003d6
:1011800048f25812c0f215029a604ef21003cef2e5
:10119000000307221a60c046bd4680bd80b584b0fa
:1011a00000af786040f2cc03c2f200031b68fb6022
:1011b0007a6840f2c403c2f2000303cb03c240f2d8
:1011c000cc03c2f200031b68fa689a42ead1c04617
:1011d000bd4604b080bd90b587b000af78604ef2d8
:1011e0001003cef200039b684ef66022d31a7b6197
:1011f0000c243b191800fff7d1ff20003b18596859
:101200007a6913005b019b1a9b009b18db001a0094
:101210000c23b2fbf3f3ca183b185a600ee00c2102
:101220007b185b6843f20062ccf265429a187b1827
:101230005a607b181b685a1c7b181a600c217b189b
:101240005a684cf6ff13c3f69a339a42e7d87b6884
:101250007a1803ca03c3c046bd4607b090bd80b527
:1012600088b000aff860b9607a6014217b18002262
:101270001a607b1800225a600023fb61bb681a6861
:101280007b681b689a4207d2bb681a687b681b6838
:10129000d21a7b181a6007e0bb681a687b681b6863
:1012a000d21a1423fb181a60bb681a687b681b6883
:1012b0009a4233d27b681a68bb681b68d31afb61f9
:1012c00015e0fb6943f2006cccf2654c6344fb61b2
:1012d0001422bb181b6823b9bb18012252421a60a2
:1012e00005e014217b181b685a1e7b181a60fa69e6
:1012f0004cf6ff13c3f69a339a42e2d81422bb1875
:101300001b6823b9bb18012252421a600ee0142157
:101310007b181b685a1e7b181a6007e0bb685a6866
:101320007b685b68d21a1423fb185a60fb6814228e
:0e133000ba1803ca03c3c046bd4608b080bd4c
:020000040000fa
:02133e00fee7c8
:020000040000fa
:101340001b5b306d1b5b324a1b5b313b31482b2de5
:101350002d2d2d2d2d2d2d2d2d2d2d2d2d2d2d2dbd
:101360002d2d2d2d2d2d2d2d2d2d2d2d2d2d2d2dad
:101370002d2d2d2d2d2d2d2d2d2d2d2d2d2d2d2d9d
:101380002d2d2d2d2d2d2d2d2d2d2d2d2d2d2d2d8d
:101390002d2d2d2b0d0a7c20454545203139323a23
:1013a00020456c656374726963616c20616e6420b2
:1013b000456c656374726f6e69637320456e67690f
:1013c0006e656572696e67204c61626f7261746fe1
:1013d00072792056492020202020207c0d0a7c2074
:1013e00020202020202020202041636164656d6939
:1013f00063205965617220323032342d32303235fb
:101400002c2053656d657374657220322020202076
:1014100020202020202020202020202020202020cc
:101420002020207c0d0a7c2020202020202020202d
:1014300020202020202020202020202020202020ac
:10144000202020202020202020202020202020209c
:10145000202020202020202020202020202020208c
:1014600020202020202020202020207c0d0a7c20ed
:1014700053656e736f723a20504d204d6f64756cda
:101480006520202020202020202020202020202017
:10149000202020202020202020202020202020204c
:1014a000202020202020202020202020202020203c
:1014b0002020207c0d0a7c2020202020202020209d
:1014c000202020202020202020202020202020201c
:1014d000202020202020202020202020202020200c
:1014e00020202020202020202020202020202020fc
:1014f00020202020202020202020207c0d0a7c205d
:10150000417574686f723a2020457374726164612a
:101510002028537570706c656d656e74656420620b
:101520007920454545203135382041592032342d28
:101530003235203153292020202020202020202037
:101540002020207c0d0a7c20446174653a202020f4
:101550002032303235202020202020202020202042
:10156000202020202020202020202020202020207b
:10157000202020202020202020202020202020206b
:1015800020202020202020202020207c0d0a2b2d10
:101590002d2d2d2d2d2d2d2d2d2d2d2d2d2d2d2d7b
:1015a0002d2d2d2d2d2d2d2d2d2d2d2d2d2d2d2d6b
:1015b0002d2d2d2d2d2d2d2d2d2d2d2d2d2d2d2d5b
:1015c0002d2d2d2d2d2d2d2d2d2d2d2d2d2d2d2d4b
:1015d0002d2d2d2b0d0a0d0a446174613a20000057
:1015e0001b5b31323b31481b5b304b001b5b3230a5
:0415f0003b31480043
:020000040000fa
:1015f40080b582b000af78607b68e82200211800d3
:1016040000f0ecf9fff792f87b6876331a007b68f8
:101614009a667b686c22202199527b686833180093
:10162400fff7f0fa7b68a6331a007b6898215a50ba
:101634007b689c22402199527b6898331800fff7fd
:10164400b9fcc046bd4602b080bdb0b584b000afa1
:1016540078600e257b1900221a80fff780f87c1928
:10166400fff734f8030023807b191b887bb17b19b7
:101674001b880122134033b17b681b88012213436a
:101684009ab27b681a800e23fb1800221a807b68aa
:101694001b881a000123134053b3fff75dfa0300bc
:1016a40043bb7b681b881bb2002b10db7a6841f2ba
:1016b4004033c0f2000353607b6840f29e221a81db
:1016c4007b681b883a4a13439ab27b681a807b680a
:1016d400043301211800fff72cfa03005bb17b6887
:1016e4001b8847f6fe7213409ab27b681a8002e0a8
:1016f400c04600e0c0467b689e229b5a9bb2012be9
:1017040014d143f20023c4f2000348f200029a61a8
:101714007b681b88042213439ab27b681a807b6817
:10172400a0229b5a99b27b68a42299527b681b8899
:101734001a00042313409bb3fff70efa03008bbb7c
:101744007b681b881bb2002b10db43f20023c4f21e
:10175400000348f200025a617b68a6331a007b68d2
:101764005a607b68a4229a5a7b681a817b68043386
:1017740001211800fff7ddf90300abb17b689e225d
:10178400002199527b6898331800fff713fc7b689b
:101794001b8847f6fb7213409ab27b681a8002e0fa
:1017a400c04600e0c046c046c046bd4604b0b0bd19
:1017b4000080ffff80b5bab000af3b001800fff710
:0c17c40017ff3b001800fff740fffae79a
:020000040000fa
:1017d000dc00002004000000010000000000000008
:1017e000a80000201c00000000000000d80000201d
:1017f0000200000000000000500000202c0000004b
:1018000000000000c40000200c00000000000000e8
:101810007c0000202c00000000000000d000002010
:101820000400000000000000000000205000000044
:1018300000000000d40000200400000000000000b0
:10184000e000002004000000010000000000000093
:101850000000000000000000666666666666666658
:020000040000fa
:1018600040f20003c0f2000323b140f20003c0f2d3
:101870000003984740f20003c0f2000323b140f296
:101880000003c0f20003984700f078f840f200032c
:10189000c0f200037f2293434ef60052cef20002c4
:1018a000936041f6e103c0f20003984740f2000361
:1018b000c0f2000323b140f20003c0f200039847d6
:1018c00040f20003c0f2000323b140f20003c0f273
:0e18d0000003984700210020fff76efffee79f
:020000040000fa
:0218de00704751
:020000040000fa
:1018e00000230e4a10b513600d4a0e4c13600e4ac9
:1018f00013600e4a13600e4a13600e4a536213615e
:1019000001339360fff7ebfffff7e9ff0a4b9c42bf
:1019100000d310bd08cc9847f8e7c046d40000209b
:101920000c000020680100000800002000000020da
:0c19300004000020100000206c010000ea
:020000040000fa
:10193c0010b5054c227832b9044b13b1044800e0c1
:10194c0000bf0123237010bda80000200000000080
:10195c0000000000034b10b51bb10349034800e025
:10196c0000bf10bd00000000ac0000200000000013
:020000040000fa
:10197c0010b50948016811b9436803b910bd0400da
:10198c008368064a9bb20c349b009b58426820002b
:10199c00984780002018ede7d0170000cc19000004
:020000040000fa
:1019ac00002310b5934206d103201840421e9041eb
:0e19bc009b08c01810bdc45ccc540133f2e788
:020000040000fa
:1019cc00f5190000ad190000071a0000071a0000f5
:0419dc00071a0000e6
:020000040000fa
:1019e00032b10300c9b28218197001339342fbd19e
:0419f0007047c04636
:020000040000fa
:1019f4008a18914201d10020704700230b700131f5
:021a0400f7e702
:020000040000fa
:041a06000020704705
:00000001FF
